:100000000C9446000C9465000C9465000C946500FB
:100010000C9465000C9465000C9465000C946500CC
:100020000C9465000C9465000C9465000C946500BC
:100030000C9465000C94B5000C9465000C9465005C
:100040000C9465000C9465000C9465000C9465009C
:100050000C9465000C9465000C9465000C9465008C
:100060000C9465000C9465000C9465000C9465007C
:100070000C9465000C9465000C9465000C9465006C
:100080000C9465000C9465000C94650011241FBE4F
:10009000CFEFD0E4DEBFCDBF11E0A0E0B1E0E4E0FF
:1000A000F5E000E00BBF02C007900D92A631B1074A
:1000B000D9F721E0A6E1B1E001C01D92AF31B2074E
:1000C000E1F70E9458020C9480020C940000CF9338
:1000D000DF93CDB7DEB781E890E02BE0FC01208311
:1000E00088E890E02DE730E0FC01318320838FE643
:1000F00090E022E0FC01208384E890E0FC01118282
:1001000010828091000190910101A0910201B091B3
:1001100003018093170190931801A0931901B093E4
:100120001A018FE590E02FE530E0F9012081206889
:10013000FC0120830000DF91CF910895CF93DF93DE
:10014000CDB7DEB781E890E0FC0110820000DF91BE
:10015000CF910895CF93DF93CDB7DEB781E0809341
:1001600016010000DF91CF9108951F920F92009029
:100170005F000F92112400905B000F922F933F932A
:100180004F935F936F937F938F939F93AF93BF939F
:10019000EF93FF93CF93DF93CDB7DEB78091170135
:1001A00090911801A0911901B0911A010197A1092C
:1001B000B1098093170190931801A0931901B0938E
:1001C0001A018091170190911801A0911901B09125
:1001D0001A01892B8A2B8B2B91F40E94AA00809103
:1001E000000190910101A0910201B091030180935F
:1001F000170190931801A0931901B0931A01000000
:10020000DF91CF91FF91EF91BF91AF919F918F912E
:100210007F916F915F914F913F912F910F9000923D
:100220005B000F9000925F000F901F901895CF9386
:10023000DF9300D000D0CDB7DEB769837A838B839C
:100240009C8389819A81AB81BC81809300019093CA
:100250000101A0930201B0930301809100019091EC
:100260000101A0910201B0910301809317019093C5
:100270001801A0931901B0931A0100000F900F907C
:100280000F900F90DF91CF910895CF93DF9300D01F
:100290001F92CDB7DEB789837B836A8389818A30D9
:1002A00031F48A819B81BC018DE00E94450180EC84
:1002B00090E0FC018081882F90E080729927892B43
:1002C000B1F386EC90E02981FC01208380E090E08E
:1002D0000F900F900F90DF91CF910895CF93DF9300
:1002E000CDB7DEB780911D0190911E01823091053E
:1002F00009F460C08330910528F4009759F0019704
:10030000C9F0CAC08330910509F494C0049709F478
:10031000A9C0C2C081E090E090931E0180931D01AE
:1003200085E290E020911201FC01208381E080931E
:100330001C01BAC080E290E0FC018081882F90E02F
:100340008170992721E0892B09F020E0822F80938A
:100350001B0180911B01882331F580911C018330A2
:1003600088F485E290E020911C01222F30E02E5E7F
:100370003E4FF9012081FC01208380911C018F5F99
:1003800080931C0180911C01833009F08AC0809108
:100390001C01815080931C0182E090E090931E012B
:1003A00080931D017EC083E090E090931E018093B6
:1003B0001D0177C080E290E0FC018081882F90E0F1
:1003C0008170992721E0892B09F020E0822F80930A
:1003D0001B0180911B01882331F580911C0188232A
:1003E00089F080911C01815080931C0185E290E08E
:1003F00020911C01222F30E02E5E3E4FF90120811A
:10040000FC01208380911C01882309F04CC080915D
:100410001C018F5F80931C0181E090E090931E018E
:1004200080931D0140C083E090E090931E01809373
:100430001D0139C080E290E0FC018081882F90E0AE
:1004400081709927892B39F483E090E090931E0105
:1004500080931D0129C084E090E090931E01809359
:100460001D0122C080E290E0FC018081882F90E095
:1004700081709927892B49F410921C0181E090E04A
:1004800090931E0180931D010FC084E090E0909333
:100490001E0180931D0108C010921E0110921D01C3
:1004A00003C0000001C000000000DF91CF9108955B
:1004B000CF93DF93CDB7DEB781E290E0FC011082ED
:1004C00082E290E02FEFFC01208384E290E02FEFA6
:1004D000FC01208385E290E0FC0110826CE271E077
:1004E00080E090E00E9417010E9467000E946E0168
:1004F0000000809116018823E1F310921601F6CFD7
:04050000F894FFCF9D
:10050400010000000000000200000000450100009E
:06051400000001020400DA
:00000001FF
